{
  "_format": "hh-sol-artifact-1",
  "contractName": "SimpleNFTMarketplace",
  "sourceName": "contracts/SimpleNFTMarketplace.sol",
  "abi": [
    {
      "inputs": [],
      "stateMutability": "nonpayable",
      "type": "constructor"
    },
    {
      "anonymous": false,
      "inputs": [
        {
          "indexed": true,
          "internalType": "address",
          "name": "owner",
          "type": "address"
        },
        {
          "indexed": true,
          "internalType": "address",
          "name": "approved",
          "type": "address"
        },
        {
          "indexed": true,
          "internalType": "uint256",
          "name": "tokenId",
          "type": "uint256"
        }
      ],
      "name": "Approval",
      "type": "event"
    },
    {
      "anonymous": false,
      "inputs": [
        {
          "indexed": true,
          "internalType": "address",
          "name": "owner",
          "type": "address"
        },
        {
          "indexed": true,
          "internalType": "address",
          "name": "operator",
          "type": "address"
        },
        {
          "indexed": false,
          "internalType": "bool",
          "name": "approved",
          "type": "bool"
        }
      ],
      "name": "ApprovalForAll",
      "type": "event"
    },
    {
      "anonymous": false,
      "inputs": [
        {
          "indexed": true,
          "internalType": "uint256",
          "name": "tokenId",
          "type": "uint256"
        },
        {
          "indexed": false,
          "internalType": "address",
          "name": "buyer",
          "type": "address"
        },
        {
          "indexed": false,
          "internalType": "address",
          "name": "seller",
          "type": "address"
        },
        {
          "indexed": false,
          "internalType": "uint256",
          "name": "price",
          "type": "uint256"
        }
      ],
      "name": "NFTBought",
      "type": "event"
    },
    {
      "anonymous": false,
      "inputs": [
        {
          "indexed": true,
          "internalType": "uint256",
          "name": "tokenId",
          "type": "uint256"
        },
        {
          "indexed": false,
          "internalType": "string",
          "name": "name",
          "type": "string"
        },
        {
          "indexed": false,
          "internalType": "string",
          "name": "description",
          "type": "string"
        },
        {
          "indexed": false,
          "internalType": "string",
          "name": "imageHash",
          "type": "string"
        },
        {
          "indexed": false,
          "internalType": "uint256",
          "name": "price",
          "type": "uint256"
        },
        {
          "indexed": false,
          "internalType": "address",
          "name": "owner",
          "type": "address"
        }
      ],
      "name": "NFTCreated",
      "type": "event"
    },
    {
      "anonymous": false,
      "inputs": [
        {
          "indexed": true,
          "internalType": "address",
          "name": "from",
          "type": "address"
        },
        {
          "indexed": true,
          "internalType": "address",
          "name": "to",
          "type": "address"
        },
        {
          "indexed": true,
          "internalType": "uint256",
          "name": "tokenId",
          "type": "uint256"
        }
      ],
      "name": "Transfer",
      "type": "event"
    },
    {
      "inputs": [
        {
          "internalType": "address",
          "name": "to",
          "type": "address"
        },
        {
          "internalType": "uint256",
          "name": "tokenId",
          "type": "uint256"
        }
      ],
      "name": "approve",
      "outputs": [],
      "stateMutability": "nonpayable",
      "type": "function"
    },
    {
      "inputs": [
        {
          "internalType": "address",
          "name": "owner",
          "type": "address"
        }
      ],
      "name": "balanceOf",
      "outputs": [
        {
          "internalType": "uint256",
          "name": "",
          "type": "uint256"
        }
      ],
      "stateMutability": "view",
      "type": "function"
    },
    {
      "inputs": [
        {
          "internalType": "uint256",
          "name": "tokenId",
          "type": "uint256"
        }
      ],
      "name": "buyNFT",
      "outputs": [],
      "stateMutability": "payable",
      "type": "function"
    },
    {
      "inputs": [
        {
          "internalType": "string",
          "name": "name",
          "type": "string"
        },
        {
          "internalType": "string",
          "name": "description",
          "type": "string"
        },
        {
          "internalType": "string",
          "name": "imageHash",
          "type": "string"
        },
        {
          "internalType": "uint256",
          "name": "price",
          "type": "uint256"
        }
      ],
      "name": "createNFT",
      "outputs": [],
      "stateMutability": "nonpayable",
      "type": "function"
    },
    {
      "inputs": [],
      "name": "getAllNFTs",
      "outputs": [
        {
          "components": [
            {
              "internalType": "uint256",
              "name": "id",
              "type": "uint256"
            },
            {
              "internalType": "string",
              "name": "name",
              "type": "string"
            },
            {
              "internalType": "string",
              "name": "description",
              "type": "string"
            },
            {
              "internalType": "string",
              "name": "imageHash",
              "type": "string"
            },
            {
              "internalType": "uint256",
              "name": "price",
              "type": "uint256"
            },
            {
              "internalType": "address",
              "name": "owner",
              "type": "address"
            }
          ],
          "internalType": "struct SimpleNFTMarketplace.NFT[]",
          "name": "",
          "type": "tuple[]"
        }
      ],
      "stateMutability": "view",
      "type": "function"
    },
    {
      "inputs": [
        {
          "internalType": "uint256",
          "name": "tokenId",
          "type": "uint256"
        }
      ],
      "name": "getApproved",
      "outputs": [
        {
          "internalType": "address",
          "name": "",
          "type": "address"
        }
      ],
      "stateMutability": "view",
      "type": "function"
    },
    {
      "inputs": [],
      "name": "getTotalNFTs",
      "outputs": [
        {
          "internalType": "uint256",
          "name": "",
          "type": "uint256"
        }
      ],
      "stateMutability": "view",
      "type": "function"
    },
    {
      "inputs": [
        {
          "internalType": "address",
          "name": "owner",
          "type": "address"
        },
        {
          "internalType": "address",
          "name": "operator",
          "type": "address"
        }
      ],
      "name": "isApprovedForAll",
      "outputs": [
        {
          "internalType": "bool",
          "name": "",
          "type": "bool"
        }
      ],
      "stateMutability": "view",
      "type": "function"
    },
    {
      "inputs": [],
      "name": "name",
      "outputs": [
        {
          "internalType": "string",
          "name": "",
          "type": "string"
        }
      ],
      "stateMutability": "view",
      "type": "function"
    },
    {
      "inputs": [
        {
          "internalType": "uint256",
          "name": "",
          "type": "uint256"
        }
      ],
      "name": "nfts",
      "outputs": [
        {
          "internalType": "uint256",
          "name": "id",
          "type": "uint256"
        },
        {
          "internalType": "string",
          "name": "name",
          "type": "string"
        },
        {
          "internalType": "string",
          "name": "description",
          "type": "string"
        },
        {
          "internalType": "string",
          "name": "imageHash",
          "type": "string"
        },
        {
          "internalType": "uint256",
          "name": "price",
          "type": "uint256"
        },
        {
          "internalType": "address",
          "name": "owner",
          "type": "address"
        }
      ],
      "stateMutability": "view",
      "type": "function"
    },
    {
      "inputs": [
        {
          "internalType": "uint256",
          "name": "tokenId",
          "type": "uint256"
        }
      ],
      "name": "ownerOf",
      "outputs": [
        {
          "internalType": "address",
          "name": "",
          "type": "address"
        }
      ],
      "stateMutability": "view",
      "type": "function"
    },
    {
      "inputs": [
        {
          "internalType": "address",
          "name": "from",
          "type": "address"
        },
        {
          "internalType": "address",
          "name": "to",
          "type": "address"
        },
        {
          "internalType": "uint256",
          "name": "tokenId",
          "type": "uint256"
        }
      ],
      "name": "safeTransferFrom",
      "outputs": [],
      "stateMutability": "nonpayable",
      "type": "function"
    },
    {
      "inputs": [
        {
          "internalType": "address",
          "name": "from",
          "type": "address"
        },
        {
          "internalType": "address",
          "name": "to",
          "type": "address"
        },
        {
          "internalType": "uint256",
          "name": "tokenId",
          "type": "uint256"
        },
        {
          "internalType": "bytes",
          "name": "data",
          "type": "bytes"
        }
      ],
      "name": "safeTransferFrom",
      "outputs": [],
      "stateMutability": "nonpayable",
      "type": "function"
    },
    {
      "inputs": [
        {
          "internalType": "address",
          "name": "operator",
          "type": "address"
        },
        {
          "internalType": "bool",
          "name": "approved",
          "type": "bool"
        }
      ],
      "name": "setApprovalForAll",
      "outputs": [],
      "stateMutability": "nonpayable",
      "type": "function"
    },
    {
      "inputs": [
        {
          "internalType": "bytes4",
          "name": "interfaceId",
          "type": "bytes4"
        }
      ],
      "name": "supportsInterface",
      "outputs": [
        {
          "internalType": "bool",
          "name": "",
          "type": "bool"
        }
      ],
      "stateMutability": "view",
      "type": "function"
    },
    {
      "inputs": [],
      "name": "symbol",
      "outputs": [
        {
          "internalType": "string",
          "name": "",
          "type": "string"
        }
      ],
      "stateMutability": "view",
      "type": "function"
    },
    {
      "inputs": [
        {
          "internalType": "uint256",
          "name": "tokenId",
          "type": "uint256"
        }
      ],
      "name": "tokenURI",
      "outputs": [
        {
          "internalType": "string",
          "name": "",
          "type": "string"
        }
      ],
      "stateMutability": "view",
      "type": "function"
    },
    {
      "inputs": [
        {
          "internalType": "address",
          "name": "from",
          "type": "address"
        },
        {
          "internalType": "address",
          "name": "to",
          "type": "address"
        },
        {
          "internalType": "uint256",
          "name": "tokenId",
          "type": "uint256"
        }
      ],
      "name": "transferFrom",
      "outputs": [],
      "stateMutability": "nonpayable",
      "type": "function"
    }
  ],
  "bytecode": "0x60806040523480156200001157600080fd5b506040518060400160405280600981526020017f53696d706c654e465400000000000000000000000000000000000000000000008152506040518060400160405280600481526020017f534e46540000000000000000000000000000000000000000000000000000000081525081600090816200008f919062000324565b508060019081620000a1919062000324565b5050506200040b565b600081519050919050565b7f4e487b7100000000000000000000000000000000000000000000000000000000600052604160045260246000fd5b7f4e487b7100000000000000000000000000000000000000000000000000000000600052602260045260246000fd5b600060028204905060018216806200012c57607f821691505b602082108103620001425762000141620000e4565b5b50919050565b60008190508160005260206000209050919050565b60006020601f8301049050919050565b600082821b905092915050565b600060088302620001ac7fffffffffffffffffffffffffffffffffffffffffffffffffffffffffffffffff826200016d565b620001b886836200016d565b95508019841693508086168417925050509392505050565b6000819050919050565b6000819050919050565b600062000205620001ff620001f984620001d0565b620001da565b620001d0565b9050919050565b6000819050919050565b6200022183620001e4565b6200023962000230826200020c565b8484546200017a565b825550505050565b600090565b6200025062000241565b6200025d81848462000216565b505050565b5b8181101562000285576200027960008262000246565b60018101905062000263565b5050565b601f821115620002d4576200029e8162000148565b620002a9846200015d565b81016020851015620002b9578190505b620002d1620002c8856200015d565b83018262000262565b50505b505050565b600082821c905092915050565b6000620002f960001984600802620002d9565b1980831691505092915050565b6000620003148383620002e6565b9150826002028217905092915050565b6200032f82620000aa565b67ffffffffffffffff8111156200034b576200034a620000b5565b5b62000357825462000113565b6200036482828562000289565b600060209050601f8311600181146200039c576000841562000387578287015190505b62000393858262000306565b86555062000403565b601f198416620003ac8662000148565b60005b82811015620003d657848901518255600182019150602085019450602081019050620003af565b86831015620003f65784890151620003f2601f891682620002e6565b8355505b6001600288020188555050505b505050505050565b61379b806200041b6000396000f3fe6080604052600436106101095760003560e01c80636352211e11610095578063b88d4fde11610064578063b88d4fde14610385578063c87b56dd146103ae578063ca1e217f146103eb578063e0391b0914610414578063e985e9c51461043f57610109565b80636352211e146102b757806370a08231146102f457806395d89b4114610331578063a22cb4651461035c57610109565b806323b872dd116100dc57806323b872dd146101dc578063265aa6211461020557806330bdb3511461024757806342842e0e1461027257806351ed82881461029b57610109565b806301ffc9a71461010e57806306fdde031461014b578063081812fc14610176578063095ea7b3146101b3575b600080fd5b34801561011a57600080fd5b50610135600480360381019061013091906121a7565b61047c565b60405161014291906121ef565b60405180910390f35b34801561015757600080fd5b5061016061055e565b60405161016d919061229a565b60405180910390f35b34801561018257600080fd5b5061019d600480360381019061019891906122f2565b6105f0565b6040516101aa9190612360565b60405180910390f35b3480156101bf57600080fd5b506101da60048036038101906101d591906123a7565b610636565b005b3480156101e857600080fd5b5061020360048036038101906101fe91906123e7565b61074d565b005b34801561021157600080fd5b5061022c600480360381019061022791906122f2565b6107ad565b60405161023e96959493929190612449565b60405180910390f35b34801561025357600080fd5b5061025c6109a1565b60405161026991906124bf565b60405180910390f35b34801561027e57600080fd5b50610299600480360381019061029491906123e7565b6109b2565b005b6102b560048036038101906102b091906122f2565b6109d2565b005b3480156102c357600080fd5b506102de60048036038101906102d991906122f2565b610bdd565b6040516102eb9190612360565b60405180910390f35b34801561030057600080fd5b5061031b600480360381019061031691906124da565b610c63565b60405161032891906124bf565b60405180910390f35b34801561033d57600080fd5b50610346610d1a565b604051610353919061229a565b60405180910390f35b34801561036857600080fd5b50610383600480360381019061037e9190612533565b610dac565b005b34801561039157600080fd5b506103ac60048036038101906103a791906126a8565b610dc2565b005b3480156103ba57600080fd5b506103d560048036038101906103d091906122f2565b610e24565b6040516103e2919061229a565b60405180910390f35b3480156103f757600080fd5b50610412600480360381019061040d91906127cc565b610e8c565b005b34801561042057600080fd5b50610429610feb565b6040516104369190612a48565b60405180910390f35b34801561044b57600080fd5b5061046660048036038101906104619190612a6a565b6112e2565b60405161047391906121ef565b60405180910390f35b60007f80ac58cd000000000000000000000000000000000000000000000000000000007bffffffffffffffffffffffffffffffffffffffffffffffffffffffff1916827bffffffffffffffffffffffffffffffffffffffffffffffffffffffff1916148061054757507f5b5e139f000000000000000000000000000000000000000000000000000000007bffffffffffffffffffffffffffffffffffffffffffffffffffffffff1916827bffffffffffffffffffffffffffffffffffffffffffffffffffffffff1916145b80610557575061055682611376565b5b9050919050565b60606000805461056d90612ad9565b80601f016020809104026020016040519081016040528092919081815260200182805461059990612ad9565b80156105e65780601f106105bb576101008083540402835291602001916105e6565b820191906000526020600020905b8154815290600101906020018083116105c957829003601f168201915b5050505050905090565b60006105fb826113e0565b6004600083815260200190815260200160002060009054906101000a900473ffffffffffffffffffffffffffffffffffffffff169050919050565b600061064182610bdd565b90508073ffffffffffffffffffffffffffffffffffffffff168373ffffffffffffffffffffffffffffffffffffffff16036106b1576040517f08c379a00000000000000000000000000000000000000000000000000000000081526004016106a890612b7c565b60405180910390fd5b8073ffffffffffffffffffffffffffffffffffffffff166106d061142b565b73ffffffffffffffffffffffffffffffffffffffff1614806106ff57506106fe816106f961142b565b6112e2565b5b61073e576040517f08c379a000000000000000000000000000000000000000000000000000000000815260040161073590612c0e565b60405180910390fd5b6107488383611433565b505050565b61075e61075861142b565b826114ec565b61079d576040517f08c379a000000000000000000000000000000000000000000000000000000000815260040161079490612ca0565b60405180910390fd5b6107a8838383611581565b505050565b60076020528060005260406000206000915090508060000154908060010180546107d690612ad9565b80601f016020809104026020016040519081016040528092919081815260200182805461080290612ad9565b801561084f5780601f106108245761010080835404028352916020019161084f565b820191906000526020600020905b81548152906001019060200180831161083257829003601f168201915b50505050509080600201805461086490612ad9565b80601f016020809104026020016040519081016040528092919081815260200182805461089090612ad9565b80156108dd5780601f106108b2576101008083540402835291602001916108dd565b820191906000526020600020905b8154815290600101906020018083116108c057829003601f168201915b5050505050908060030180546108f290612ad9565b80601f016020809104026020016040519081016040528092919081815260200182805461091e90612ad9565b801561096b5780601f106109405761010080835404028352916020019161096b565b820191906000526020600020905b81548152906001019060200180831161094e57829003601f168201915b5050505050908060040154908060050160009054906101000a900473ffffffffffffffffffffffffffffffffffffffff16905086565b60006109ad600661187a565b905090565b6109cd83838360405180602001604052806000815250610dc2565b505050565b6109db81611888565b610a1a576040517f08c379a0000000000000000000000000000000000000000000000000000000008152600401610a1190612d0c565b60405180910390fd5b6007600082815260200190815260200160002060040154341015610a73576040517f08c379a0000000000000000000000000000000000000000000000000000000008152600401610a6a90612d78565b60405180910390fd5b3373ffffffffffffffffffffffffffffffffffffffff16610a9382610bdd565b73ffffffffffffffffffffffffffffffffffffffff1603610ae9576040517f08c379a0000000000000000000000000000000000000000000000000000000008152600401610ae090612de4565b60405180910390fd5b6000610af482610bdd565b9050610b01813384611581565b8073ffffffffffffffffffffffffffffffffffffffff166108fc349081150290604051600060405180830381858888f19350505050158015610b47573d6000803e3d6000fd5b50336007600084815260200190815260200160002060050160006101000a81548173ffffffffffffffffffffffffffffffffffffffff021916908373ffffffffffffffffffffffffffffffffffffffff160217905550817fc55254892a1711b67c27fcc61c33145acd745d88047198774c9f479bd2fab72e338334604051610bd193929190612e04565b60405180910390a25050565b600080610be9836118c9565b9050600073ffffffffffffffffffffffffffffffffffffffff168173ffffffffffffffffffffffffffffffffffffffff1603610c5a576040517f08c379a0000000000000000000000000000000000000000000000000000000008152600401610c5190612e87565b60405180910390fd5b80915050919050565b60008073ffffffffffffffffffffffffffffffffffffffff168273ffffffffffffffffffffffffffffffffffffffff1603610cd3576040517f08c379a0000000000000000000000000000000000000000000000000000000008152600401610cca90612f19565b60405180910390fd5b600360008373ffffffffffffffffffffffffffffffffffffffff1673ffffffffffffffffffffffffffffffffffffffff168152602001908152602001600020549050919050565b606060018054610d2990612ad9565b80601f0160208091040260200160405190810160405280929190818152602001828054610d5590612ad9565b8015610da25780601f10610d7757610100808354040283529160200191610da2565b820191906000526020600020905b815481529060010190602001808311610d8557829003601f168201915b5050505050905090565b610dbe610db761142b565b8383611906565b5050565b610dd3610dcd61142b565b836114ec565b610e12576040517f08c379a0000000000000000000000000000000000000000000000000000000008152600401610e0990612ca0565b60405180910390fd5b610e1e84848484611a72565b50505050565b6060610e2f826113e0565b6000610e39611ace565b90506000815111610e595760405180602001604052806000815250610e84565b80610e6384611ae5565b604051602001610e74929190612f75565b6040516020818303038152906040525b915050919050565b610e966006611bb3565b6000610ea2600661187a565b9050610eae3382611bc9565b6040518060c001604052808281526020018681526020018581526020018481526020018381526020013373ffffffffffffffffffffffffffffffffffffffff1681525060076000838152602001908152602001600020600082015181600001556020820151816001019081610f239190613145565b506040820151816002019081610f399190613145565b506060820151816003019081610f4f9190613145565b506080820151816004015560a08201518160050160006101000a81548173ffffffffffffffffffffffffffffffffffffffff021916908373ffffffffffffffffffffffffffffffffffffffff160217905550905050807f14c4d5c16ba409992cd0c7597017a95836dfc42f2fbbce8b28a2b960c6be27dc8686868633604051610fdc959493929190613217565b60405180910390a25050505050565b60606000610ff9600661187a565b905060008167ffffffffffffffff8111156110175761101661257d565b5b60405190808252806020026020018201604052801561105057816020015b61103d6120ef565b8152602001906001900390816110355790505b50905060005b828110156112d9576007600060018361106f91906132ae565b81526020019081526020016000206040518060c0016040529081600082015481526020016001820180546110a290612ad9565b80601f01602080910402602001604051908101604052809291908181526020018280546110ce90612ad9565b801561111b5780601f106110f05761010080835404028352916020019161111b565b820191906000526020600020905b8154815290600101906020018083116110fe57829003601f168201915b5050505050815260200160028201805461113490612ad9565b80601f016020809104026020016040519081016040528092919081815260200182805461116090612ad9565b80156111ad5780601f10611182576101008083540402835291602001916111ad565b820191906000526020600020905b81548152906001019060200180831161119057829003601f168201915b505050505081526020016003820180546111c690612ad9565b80601f01602080910402602001604051908101604052809291908181526020018280546111f290612ad9565b801561123f5780601f106112145761010080835404028352916020019161123f565b820191906000526020600020905b81548152906001019060200180831161122257829003601f168201915b50505050508152602001600482015481526020016005820160009054906101000a900473ffffffffffffffffffffffffffffffffffffffff1673ffffffffffffffffffffffffffffffffffffffff1673ffffffffffffffffffffffffffffffffffffffff16815250508282815181106112bb576112ba6132e2565b5b602002602001018190525080806112d190613311565b915050611056565b50809250505090565b6000600560008473ffffffffffffffffffffffffffffffffffffffff1673ffffffffffffffffffffffffffffffffffffffff16815260200190815260200160002060008373ffffffffffffffffffffffffffffffffffffffff1673ffffffffffffffffffffffffffffffffffffffff16815260200190815260200160002060009054906101000a900460ff16905092915050565b60007f01ffc9a7000000000000000000000000000000000000000000000000000000007bffffffffffffffffffffffffffffffffffffffffffffffffffffffff1916827bffffffffffffffffffffffffffffffffffffffffffffffffffffffff1916149050919050565b6113e981611888565b611428576040517f08c379a000000000000000000000000000000000000000000000000000000000815260040161141f90612e87565b60405180910390fd5b50565b600033905090565b816004600083815260200190815260200160002060006101000a81548173ffffffffffffffffffffffffffffffffffffffff021916908373ffffffffffffffffffffffffffffffffffffffff160217905550808273ffffffffffffffffffffffffffffffffffffffff166114a683610bdd565b73ffffffffffffffffffffffffffffffffffffffff167f8c5be1e5ebec7d5bd14f71427d1e84f3dd0314c0f7b2291e5b200ac8c7c3b92560405160405180910390a45050565b6000806114f883610bdd565b90508073ffffffffffffffffffffffffffffffffffffffff168473ffffffffffffffffffffffffffffffffffffffff16148061153a575061153981856112e2565b5b8061157857508373ffffffffffffffffffffffffffffffffffffffff16611560846105f0565b73ffffffffffffffffffffffffffffffffffffffff16145b91505092915050565b8273ffffffffffffffffffffffffffffffffffffffff166115a182610bdd565b73ffffffffffffffffffffffffffffffffffffffff16146115f7576040517f08c379a00000000000000000000000000000000000000000000000000000000081526004016115ee906133cb565b60405180910390fd5b600073ffffffffffffffffffffffffffffffffffffffff168273ffffffffffffffffffffffffffffffffffffffff1603611666576040517f08c379a000000000000000000000000000000000000000000000000000000000815260040161165d9061345d565b60405180910390fd5b6116738383836001611de6565b8273ffffffffffffffffffffffffffffffffffffffff1661169382610bdd565b73ffffffffffffffffffffffffffffffffffffffff16146116e9576040517f08c379a00000000000000000000000000000000000000000000000000000000081526004016116e0906133cb565b60405180910390fd5b6004600082815260200190815260200160002060006101000a81549073ffffffffffffffffffffffffffffffffffffffff02191690556001600360008573ffffffffffffffffffffffffffffffffffffffff1673ffffffffffffffffffffffffffffffffffffffff168152602001908152602001600020600082825403925050819055506001600360008473ffffffffffffffffffffffffffffffffffffffff1673ffffffffffffffffffffffffffffffffffffffff16815260200190815260200160002060008282540192505081905550816002600083815260200190815260200160002060006101000a81548173ffffffffffffffffffffffffffffffffffffffff021916908373ffffffffffffffffffffffffffffffffffffffff160217905550808273ffffffffffffffffffffffffffffffffffffffff168473ffffffffffffffffffffffffffffffffffffffff167fddf252ad1be2c89b69c2b068fc378daa952ba7f163c4a11628f55a4df523b3ef60405160405180910390a46118758383836001611dec565b505050565b600081600001549050919050565b60008073ffffffffffffffffffffffffffffffffffffffff166118aa836118c9565b73ffffffffffffffffffffffffffffffffffffffff1614159050919050565b60006002600083815260200190815260200160002060009054906101000a900473ffffffffffffffffffffffffffffffffffffffff169050919050565b8173ffffffffffffffffffffffffffffffffffffffff168373ffffffffffffffffffffffffffffffffffffffff1603611974576040517f08c379a000000000000000000000000000000000000000000000000000000000815260040161196b906134c9565b60405180910390fd5b80600560008573ffffffffffffffffffffffffffffffffffffffff1673ffffffffffffffffffffffffffffffffffffffff16815260200190815260200160002060008473ffffffffffffffffffffffffffffffffffffffff1673ffffffffffffffffffffffffffffffffffffffff16815260200190815260200160002060006101000a81548160ff0219169083151502179055508173ffffffffffffffffffffffffffffffffffffffff168373ffffffffffffffffffffffffffffffffffffffff167f17307eab39ab6107e8899845ad3d59bd9653f200f220920489ca2b5937696c3183604051611a6591906121ef565b60405180910390a3505050565b611a7d848484611581565b611a8984848484611df2565b611ac8576040517f08c379a0000000000000000000000000000000000000000000000000000000008152600401611abf9061355b565b60405180910390fd5b50505050565b606060405180602001604052806000815250905090565b606060006001611af484611f79565b01905060008167ffffffffffffffff811115611b1357611b1261257d565b5b6040519080825280601f01601f191660200182016040528015611b455781602001600182028036833780820191505090505b509050600082602001820190505b600115611ba8578080600190039150507f3031323334353637383961626364656600000000000000000000000000000000600a86061a8153600a8581611b9c57611b9b61357b565b5b04945060008503611b53575b819350505050919050565b6001816000016000828254019250508190555050565b600073ffffffffffffffffffffffffffffffffffffffff168273ffffffffffffffffffffffffffffffffffffffff1603611c38576040517f08c379a0000000000000000000000000000000000000000000000000000000008152600401611c2f906135f6565b60405180910390fd5b611c4181611888565b15611c81576040517f08c379a0000000000000000000000000000000000000000000000000000000008152600401611c7890613662565b60405180910390fd5b611c8f600083836001611de6565b611c9881611888565b15611cd8576040517f08c379a0000000000000000000000000000000000000000000000000000000008152600401611ccf90613662565b60405180910390fd5b6001600360008473ffffffffffffffffffffffffffffffffffffffff1673ffffffffffffffffffffffffffffffffffffffff16815260200190815260200160002060008282540192505081905550816002600083815260200190815260200160002060006101000a81548173ffffffffffffffffffffffffffffffffffffffff021916908373ffffffffffffffffffffffffffffffffffffffff160217905550808273ffffffffffffffffffffffffffffffffffffffff16600073ffffffffffffffffffffffffffffffffffffffff167fddf252ad1be2c89b69c2b068fc378daa952ba7f163c4a11628f55a4df523b3ef60405160405180910390a4611de2600083836001611dec565b5050565b50505050565b50505050565b6000611e138473ffffffffffffffffffffffffffffffffffffffff166120cc565b15611f6c578373ffffffffffffffffffffffffffffffffffffffff1663150b7a02611e3c61142b565b8786866040518563ffffffff1660e01b8152600401611e5e94939291906136d7565b6020604051808303816000875af1925050508015611e9a57506040513d601f19601f82011682018060405250810190611e979190613738565b60015b611f1c573d8060008114611eca576040519150601f19603f3d011682016040523d82523d6000602084013e611ecf565b606091505b506000815103611f14576040517f08c379a0000000000000000000000000000000000000000000000000000000008152600401611f0b9061355b565b60405180910390fd5b805181602001fd5b63150b7a0260e01b7bffffffffffffffffffffffffffffffffffffffffffffffffffffffff1916817bffffffffffffffffffffffffffffffffffffffffffffffffffffffff191614915050611f71565b600190505b949350505050565b600080600090507a184f03e93ff9f4daa797ed6e38ed64bf6a1f0100000000000000008310611fd7577a184f03e93ff9f4daa797ed6e38ed64bf6a1f0100000000000000008381611fcd57611fcc61357b565b5b0492506040810190505b6d04ee2d6d415b85acef81000000008310612014576d04ee2d6d415b85acef8100000000838161200a5761200961357b565b5b0492506020810190505b662386f26fc10000831061204357662386f26fc1000083816120395761203861357b565b5b0492506010810190505b6305f5e100831061206c576305f5e10083816120625761206161357b565b5b0492506008810190505b61271083106120915761271083816120875761208661357b565b5b0492506004810190505b606483106120b457606483816120aa576120a961357b565b5b0492506002810190505b600a83106120c3576001810190505b80915050919050565b6000808273ffffffffffffffffffffffffffffffffffffffff163b119050919050565b6040518060c001604052806000815260200160608152602001606081526020016060815260200160008152602001600073ffffffffffffffffffffffffffffffffffffffff1681525090565b6000604051905090565b600080fd5b600080fd5b60007fffffffff0000000000000000000000000000000000000000000000000000000082169050919050565b6121848161214f565b811461218f57600080fd5b50565b6000813590506121a18161217b565b92915050565b6000602082840312156121bd576121bc612145565b5b60006121cb84828501612192565b91505092915050565b60008115159050919050565b6121e9816121d4565b82525050565b600060208201905061220460008301846121e0565b92915050565b600081519050919050565b600082825260208201905092915050565b60005b83811015612244578082015181840152602081019050612229565b60008484015250505050565b6000601f19601f8301169050919050565b600061226c8261220a565b6122768185612215565b9350612286818560208601612226565b61228f81612250565b840191505092915050565b600060208201905081810360008301526122b48184612261565b905092915050565b6000819050919050565b6122cf816122bc565b81146122da57600080fd5b50565b6000813590506122ec816122c6565b92915050565b60006020828403121561230857612307612145565b5b6000612316848285016122dd565b91505092915050565b600073ffffffffffffffffffffffffffffffffffffffff82169050919050565b600061234a8261231f565b9050919050565b61235a8161233f565b82525050565b60006020820190506123756000830184612351565b92915050565b6123848161233f565b811461238f57600080fd5b50565b6000813590506123a18161237b565b92915050565b600080604083850312156123be576123bd612145565b5b60006123cc85828601612392565b92505060206123dd858286016122dd565b9150509250929050565b600080600060608486031215612400576123ff612145565b5b600061240e86828701612392565b935050602061241f86828701612392565b9250506040612430868287016122dd565b9150509250925092565b612443816122bc565b82525050565b600060c08201905061245e600083018961243a565b81810360208301526124708188612261565b905081810360408301526124848187612261565b905081810360608301526124988186612261565b90506124a7608083018561243a565b6124b460a0830184612351565b979650505050505050565b60006020820190506124d4600083018461243a565b92915050565b6000602082840312156124f0576124ef612145565b5b60006124fe84828501612392565b91505092915050565b612510816121d4565b811461251b57600080fd5b50565b60008135905061252d81612507565b92915050565b6000806040838503121561254a57612549612145565b5b600061255885828601612392565b92505060206125698582860161251e565b9150509250929050565b600080fd5b600080fd5b7f4e487b7100000000000000000000000000000000000000000000000000000000600052604160045260246000fd5b6125b582612250565b810181811067ffffffffffffffff821117156125d4576125d361257d565b5b80604052505050565b60006125e761213b565b90506125f382826125ac565b919050565b600067ffffffffffffffff8211156126135761261261257d565b5b61261c82612250565b9050602081019050919050565b82818337600083830152505050565b600061264b612646846125f8565b6125dd565b90508281526020810184848401111561266757612666612578565b5b612672848285612629565b509392505050565b600082601f83011261268f5761268e612573565b5b813561269f848260208601612638565b91505092915050565b600080600080608085870312156126c2576126c1612145565b5b60006126d087828801612392565b94505060206126e187828801612392565b93505060406126f2878288016122dd565b925050606085013567ffffffffffffffff8111156127135761271261214a565b5b61271f8782880161267a565b91505092959194509250565b600067ffffffffffffffff8211156127465761274561257d565b5b61274f82612250565b9050602081019050919050565b600061276f61276a8461272b565b6125dd565b90508281526020810184848401111561278b5761278a612578565b5b612796848285612629565b509392505050565b600082601f8301126127b3576127b2612573565b5b81356127c384826020860161275c565b91505092915050565b600080600080608085870312156127e6576127e5612145565b5b600085013567ffffffffffffffff8111156128045761280361214a565b5b6128108782880161279e565b945050602085013567ffffffffffffffff8111156128315761283061214a565b5b61283d8782880161279e565b935050604085013567ffffffffffffffff81111561285e5761285d61214a565b5b61286a8782880161279e565b925050606061287b878288016122dd565b91505092959194509250565b600081519050919050565b600082825260208201905092915050565b6000819050602082019050919050565b6128bc816122bc565b82525050565b600082825260208201905092915050565b60006128de8261220a565b6128e881856128c2565b93506128f8818560208601612226565b61290181612250565b840191505092915050565b6129158161233f565b82525050565b600060c08301600083015161293360008601826128b3565b506020830151848203602086015261294b82826128d3565b9150506040830151848203604086015261296582826128d3565b9150506060830151848203606086015261297f82826128d3565b915050608083015161299460808601826128b3565b5060a08301516129a760a086018261290c565b508091505092915050565b60006129be838361291b565b905092915050565b6000602082019050919050565b60006129de82612887565b6129e88185612892565b9350836020820285016129fa856128a3565b8060005b85811015612a365784840389528151612a1785826129b2565b9450612a22836129c6565b925060208a019950506001810190506129fe565b50829750879550505050505092915050565b60006020820190508181036000830152612a6281846129d3565b905092915050565b60008060408385031215612a8157612a80612145565b5b6000612a8f85828601612392565b9250506020612aa085828601612392565b9150509250929050565b7f4e487b7100000000000000000000000000000000000000000000000000000000600052602260045260246000fd5b60006002820490506001821680612af157607f821691505b602082108103612b0457612b03612aaa565b5b50919050565b7f4552433732313a20617070726f76616c20746f2063757272656e74206f776e6560008201527f7200000000000000000000000000000000000000000000000000000000000000602082015250565b6000612b66602183612215565b9150612b7182612b0a565b604082019050919050565b60006020820190508181036000830152612b9581612b59565b9050919050565b7f4552433732313a20617070726f76652063616c6c6572206973206e6f7420746f60008201527f6b656e206f776e6572206f7220617070726f76656420666f7220616c6c000000602082015250565b6000612bf8603d83612215565b9150612c0382612b9c565b604082019050919050565b60006020820190508181036000830152612c2781612beb565b9050919050565b7f4552433732313a2063616c6c6572206973206e6f7420746f6b656e206f776e6560008201527f72206f7220617070726f76656400000000000000000000000000000000000000602082015250565b6000612c8a602d83612215565b9150612c9582612c2e565b604082019050919050565b60006020820190508181036000830152612cb981612c7d565b9050919050565b7f4e465420646f6573206e6f742065786973740000000000000000000000000000600082015250565b6000612cf6601283612215565b9150612d0182612cc0565b602082019050919050565b60006020820190508181036000830152612d2581612ce9565b9050919050565b7f496e73756666696369656e742066756e64730000000000000000000000000000600082015250565b6000612d62601283612215565b9150612d6d82612d2c565b602082019050919050565b60006020820190508181036000830152612d9181612d55565b9050919050565b7f596f7520616c7265616479206f776e2074686973204e46540000000000000000600082015250565b6000612dce601883612215565b9150612dd982612d98565b602082019050919050565b60006020820190508181036000830152612dfd81612dc1565b9050919050565b6000606082019050612e196000830186612351565b612e266020830185612351565b612e33604083018461243a565b949350505050565b7f4552433732313a20696e76616c696420746f6b656e2049440000000000000000600082015250565b6000612e71601883612215565b9150612e7c82612e3b565b602082019050919050565b60006020820190508181036000830152612ea081612e64565b9050919050565b7f4552433732313a2061646472657373207a65726f206973206e6f74206120766160008201527f6c6964206f776e65720000000000000000000000000000000000000000000000602082015250565b6000612f03602983612215565b9150612f0e82612ea7565b604082019050919050565b60006020820190508181036000830152612f3281612ef6565b9050919050565b600081905092915050565b6000612f4f8261220a565b612f598185612f39565b9350612f69818560208601612226565b80840191505092915050565b6000612f818285612f44565b9150612f8d8284612f44565b91508190509392505050565b60008190508160005260206000209050919050565b60006020601f8301049050919050565b600082821b905092915050565b600060088302612ffb7fffffffffffffffffffffffffffffffffffffffffffffffffffffffffffffffff82612fbe565b6130058683612fbe565b95508019841693508086168417925050509392505050565b6000819050919050565b600061304261303d613038846122bc565b61301d565b6122bc565b9050919050565b6000819050919050565b61305c83613027565b61307061306882613049565b848454612fcb565b825550505050565b600090565b613085613078565b613090818484613053565b505050565b5b818110156130b4576130a960008261307d565b600181019050613096565b5050565b601f8211156130f9576130ca81612f99565b6130d384612fae565b810160208510156130e2578190505b6130f66130ee85612fae565b830182613095565b50505b505050565b600082821c905092915050565b600061311c600019846008026130fe565b1980831691505092915050565b6000613135838361310b565b9150826002028217905092915050565b61314e8261220a565b67ffffffffffffffff8111156131675761316661257d565b5b6131718254612ad9565b61317c8282856130b8565b600060209050601f8311600181146131af576000841561319d578287015190505b6131a78582613129565b86555061320f565b601f1984166131bd86612f99565b60005b828110156131e5578489015182556001820191506020850194506020810190506131c0565b8683101561320257848901516131fe601f89168261310b565b8355505b6001600288020188555050505b505050505050565b600060a08201905081810360008301526132318188612261565b905081810360208301526132458187612261565b905081810360408301526132598186612261565b9050613268606083018561243a565b6132756080830184612351565b9695505050505050565b7f4e487b7100000000000000000000000000000000000000000000000000000000600052601160045260246000fd5b60006132b9826122bc565b91506132c4836122bc565b92508282019050808211156132dc576132db61327f565b5b92915050565b7f4e487b7100000000000000000000000000000000000000000000000000000000600052603260045260246000fd5b600061331c826122bc565b91507fffffffffffffffffffffffffffffffffffffffffffffffffffffffffffffffff820361334e5761334d61327f565b5b600182019050919050565b7f4552433732313a207472616e736665722066726f6d20696e636f72726563742060008201527f6f776e6572000000000000000000000000000000000000000000000000000000602082015250565b60006133b5602583612215565b91506133c082613359565b604082019050919050565b600060208201905081810360008301526133e4816133a8565b9050919050565b7f4552433732313a207472616e7366657220746f20746865207a65726f2061646460008201527f7265737300000000000000000000000000000000000000000000000000000000602082015250565b6000613447602483612215565b9150613452826133eb565b604082019050919050565b600060208201905081810360008301526134768161343a565b9050919050565b7f4552433732313a20617070726f766520746f2063616c6c657200000000000000600082015250565b60006134b3601983612215565b91506134be8261347d565b602082019050919050565b600060208201905081810360008301526134e2816134a6565b9050919050565b7f4552433732313a207472616e7366657220746f206e6f6e20455243373231526560008201527f63656976657220696d706c656d656e7465720000000000000000000000000000602082015250565b6000613545603283612215565b9150613550826134e9565b604082019050919050565b6000602082019050818103600083015261357481613538565b9050919050565b7f4e487b7100000000000000000000000000000000000000000000000000000000600052601260045260246000fd5b7f4552433732313a206d696e7420746f20746865207a65726f2061646472657373600082015250565b60006135e0602083612215565b91506135eb826135aa565b602082019050919050565b6000602082019050818103600083015261360f816135d3565b9050919050565b7f4552433732313a20746f6b656e20616c7265616479206d696e74656400000000600082015250565b600061364c601c83612215565b915061365782613616565b602082019050919050565b6000602082019050818103600083015261367b8161363f565b9050919050565b600081519050919050565b600082825260208201905092915050565b60006136a982613682565b6136b3818561368d565b93506136c3818560208601612226565b6136cc81612250565b840191505092915050565b60006080820190506136ec6000830187612351565b6136f96020830186612351565b613706604083018561243a565b8181036060830152613718818461369e565b905095945050505050565b6000815190506137328161217b565b92915050565b60006020828403121561374e5761374d612145565b5b600061375c84828501613723565b9150509291505056fea264697066735822122099e70603140d681eaec1112af06cf9cf5d5e52da94a135af6d1c8565eed914f364736f6c63430008130033",
  "linkReferences": {},
  "deployedLinkReferences": {}
}